{
  "_format": "hh-sol-artifact-1",
  "contractName": "VotingSystem",
  "sourceName": "contracts/Greeter.sol",
  "abi": [
    {
      "inputs": [],
      "stateMutability": "nonpayable",
      "type": "constructor"
    },
    {
      "anonymous": false,
      "inputs": [
        {
          "indexed": true,
          "internalType": "uint256",
          "name": "candidateId",
          "type": "uint256"
        },
        {
          "indexed": false,
          "internalType": "string",
          "name": "candidateName",
          "type": "string"
        }
      ],
      "name": "CandidateAdded",
      "type": "event"
    },
    {
      "anonymous": false,
      "inputs": [
        {
          "indexed": true,
          "internalType": "address",
          "name": "voter",
          "type": "address"
        },
        {
          "indexed": true,
          "internalType": "uint256",
          "name": "candidate",
          "type": "uint256"
        }
      ],
      "name": "Voted",
      "type": "event"
    },
    {
      "anonymous": false,
      "inputs": [
        {
          "indexed": true,
          "internalType": "address",
          "name": "voter",
          "type": "address"
        }
      ],
      "name": "VoterRegistered",
      "type": "event"
    },
    {
      "inputs": [
        {
          "internalType": "uint256",
          "name": "candidateId",
          "type": "uint256"
        },
        {
          "internalType": "string",
          "name": "candidateName",
          "type": "string"
        }
      ],
      "name": "addCandidate",
      "outputs": [],
      "stateMutability": "nonpayable",
      "type": "function"
    },
    {
      "inputs": [],
      "name": "admin",
      "outputs": [
        {
          "internalType": "address",
          "name": "",
          "type": "address"
        }
      ],
      "stateMutability": "view",
      "type": "function"
    },
    {
      "inputs": [
        {
          "internalType": "uint256",
          "name": "candidate",
          "type": "uint256"
        }
      ],
      "name": "getVoteCount",
      "outputs": [
        {
          "internalType": "uint256",
          "name": "",
          "type": "uint256"
        }
      ],
      "stateMutability": "view",
      "type": "function"
    },
    {
      "inputs": [
        {
          "internalType": "address",
          "name": "",
          "type": "address"
        }
      ],
      "name": "hasVoted",
      "outputs": [
        {
          "internalType": "bool",
          "name": "",
          "type": "bool"
        }
      ],
      "stateMutability": "view",
      "type": "function"
    },
    {
      "inputs": [
        {
          "internalType": "address",
          "name": "",
          "type": "address"
        }
      ],
      "name": "isRegistered",
      "outputs": [
        {
          "internalType": "bool",
          "name": "",
          "type": "bool"
        }
      ],
      "stateMutability": "view",
      "type": "function"
    },
    {
      "inputs": [],
      "name": "registerVoter",
      "outputs": [],
      "stateMutability": "nonpayable",
      "type": "function"
    },
    {
      "inputs": [],
      "name": "totalVotes",
      "outputs": [
        {
          "internalType": "uint256",
          "name": "",
          "type": "uint256"
        }
      ],
      "stateMutability": "view",
      "type": "function"
    },
    {
      "inputs": [
        {
          "internalType": "uint256",
          "name": "candidate",
          "type": "uint256"
        }
      ],
      "name": "vote",
      "outputs": [],
      "stateMutability": "nonpayable",
      "type": "function"
    },
    {
      "inputs": [
        {
          "internalType": "uint256",
          "name": "",
          "type": "uint256"
        }
      ],
      "name": "voteCount",
      "outputs": [
        {
          "internalType": "uint256",
          "name": "",
          "type": "uint256"
        }
      ],
      "stateMutability": "view",
      "type": "function"
    }
  ],
  "bytecode": "0x608060405234801561001057600080fd5b50336000806101000a81548173ffffffffffffffffffffffffffffffffffffffff021916908373ffffffffffffffffffffffffffffffffffffffff160217905550610e80806100606000396000f3fe608060405234801561001057600080fd5b50600436106100935760003560e01c80634fc8a20d116100665780634fc8a20d1461011e578063b2c2f2e81461014e578063c3c5a5471461017e578063ecb617d9146101ae578063f851a440146101b857610093565b80630121b93f1461009857806309eef43e146100b45780630d15fd77146100e45780631750a3d014610102575b600080fd5b6100b260048036038101906100ad9190610770565b6101d6565b005b6100ce60048036038101906100c991906107fb565b610431565b6040516100db9190610843565b60405180910390f35b6100ec610451565b6040516100f9919061086d565b60405180910390f35b61011c600480360381019061011791906109ce565b610457565b005b61013860048036038101906101339190610770565b610583565b604051610145919061086d565b60405180910390f35b61016860048036038101906101639190610770565b61059b565b604051610175919061086d565b60405180910390f35b610198600480360381019061019391906107fb565b6105b8565b6040516101a59190610843565b60405180910390f35b6101b66105d8565b005b6101c0610702565b6040516101cd9190610a39565b60405180910390f35b600360003373ffffffffffffffffffffffffffffffffffffffff1673ffffffffffffffffffffffffffffffffffffffff16815260200190815260200160002060009054906101000a900460ff1615610263576040517f08c379a000000000000000000000000000000000000000000000000000000000815260040161025a90610ab1565b60405180910390fd5b600260003373ffffffffffffffffffffffffffffffffffffffff1673ffffffffffffffffffffffffffffffffffffffff16815260200190815260200160002060009054906101000a900460ff166102ef576040517f08c379a00000000000000000000000000000000000000000000000000000000081526004016102e690610b1d565b60405180910390fd5b600081118015610312575060006004600083815260200190815260200160002054115b610351576040517f08c379a000000000000000000000000000000000000000000000000000000000815260040161034890610b89565b60405180910390fd5b60046000828152602001908152602001600020600081548092919061037590610bd8565b91905055506001600360003373ffffffffffffffffffffffffffffffffffffffff1673ffffffffffffffffffffffffffffffffffffffff16815260200190815260200160002060006101000a81548160ff021916908315150217905550600160008154809291906103e590610bd8565b9190505550803373ffffffffffffffffffffffffffffffffffffffff167f4d99b957a2bc29a30ebd96a7be8e68fe50a3c701db28a91436490b7d53870ca460405160405180910390a350565b60036020528060005260406000206000915054906101000a900460ff1681565b60015481565b60008054906101000a900473ffffffffffffffffffffffffffffffffffffffff1673ffffffffffffffffffffffffffffffffffffffff163373ffffffffffffffffffffffffffffffffffffffff16146104e5576040517f08c379a00000000000000000000000000000000000000000000000000000000081526004016104dc90610c93565b60405180910390fd5b600082118015610508575060006004600084815260200190815260200160002054145b610547576040517f08c379a000000000000000000000000000000000000000000000000000000000815260040161053e90610cff565b60405180910390fd5b817fe83b2a43e7e82d975c8a0a6d2f045153c869e111136a34d1889ab7b598e396a3826040516105779190610d96565b60405180910390a25050565b60046020528060005260406000206000915090505481565b600060046000838152602001908152602001600020549050919050565b60026020528060005260406000206000915054906101000a900460ff1681565b600260003373ffffffffffffffffffffffffffffffffffffffff1673ffffffffffffffffffffffffffffffffffffffff16815260200190815260200160002060009054906101000a900460ff1615610665576040517f08c379a000000000000000000000000000000000000000000000000000000000815260040161065c90610e2a565b60405180910390fd5b6001600260003373ffffffffffffffffffffffffffffffffffffffff1673ffffffffffffffffffffffffffffffffffffffff16815260200190815260200160002060006101000a81548160ff0219169083151502179055503373ffffffffffffffffffffffffffffffffffffffff167fb6be2187d059cc2a55fe29e0e503b566e1e0f8c8780096e185429350acffd3dd60405160405180910390a2565b60008054906101000a900473ffffffffffffffffffffffffffffffffffffffff1681565b6000604051905090565b600080fd5b600080fd5b6000819050919050565b61074d8161073a565b811461075857600080fd5b50565b60008135905061076a81610744565b92915050565b60006020828403121561078657610785610730565b5b60006107948482850161075b565b91505092915050565b600073ffffffffffffffffffffffffffffffffffffffff82169050919050565b60006107c88261079d565b9050919050565b6107d8816107bd565b81146107e357600080fd5b50565b6000813590506107f5816107cf565b92915050565b60006020828403121561081157610810610730565b5b600061081f848285016107e6565b91505092915050565b60008115159050919050565b61083d81610828565b82525050565b60006020820190506108586000830184610834565b92915050565b6108678161073a565b82525050565b6000602082019050610882600083018461085e565b92915050565b600080fd5b600080fd5b6000601f19601f8301169050919050565b7f4e487b7100000000000000000000000000000000000000000000000000000000600052604160045260246000fd5b6108db82610892565b810181811067ffffffffffffffff821117156108fa576108f96108a3565b5b80604052505050565b600061090d610726565b905061091982826108d2565b919050565b600067ffffffffffffffff821115610939576109386108a3565b5b61094282610892565b9050602081019050919050565b82818337600083830152505050565b600061097161096c8461091e565b610903565b90508281526020810184848401111561098d5761098c61088d565b5b61099884828561094f565b509392505050565b600082601f8301126109b5576109b4610888565b5b81356109c584826020860161095e565b91505092915050565b600080604083850312156109e5576109e4610730565b5b60006109f38582860161075b565b925050602083013567ffffffffffffffff811115610a1457610a13610735565b5b610a20858286016109a0565b9150509250929050565b610a33816107bd565b82525050565b6000602082019050610a4e6000830184610a2a565b92915050565b600082825260208201905092915050565b7f596f75206861766520616c726561647920766f74656400000000000000000000600082015250565b6000610a9b601683610a54565b9150610aa682610a65565b602082019050919050565b60006020820190508181036000830152610aca81610a8e565b9050919050565b7f596f7520617265206e6f742061207265676973746572656420766f7465720000600082015250565b6000610b07601e83610a54565b9150610b1282610ad1565b602082019050919050565b60006020820190508181036000830152610b3681610afa565b9050919050565b7f496e76616c69642063616e646964617465000000000000000000000000000000600082015250565b6000610b73601183610a54565b9150610b7e82610b3d565b602082019050919050565b60006020820190508181036000830152610ba281610b66565b9050919050565b7f4e487b7100000000000000000000000000000000000000000000000000000000600052601160045260246000fd5b6000610be38261073a565b91507fffffffffffffffffffffffffffffffffffffffffffffffffffffffffffffffff821415610c1657610c15610ba9565b5b600182019050919050565b7f4f6e6c792061646d696e2063616e20706572666f726d2074686973206163746960008201527f6f6e000000000000000000000000000000000000000000000000000000000000602082015250565b6000610c7d602283610a54565b9150610c8882610c21565b604082019050919050565b60006020820190508181036000830152610cac81610c70565b9050919050565b7f496e76616c69642063616e646964617465204944000000000000000000000000600082015250565b6000610ce9601483610a54565b9150610cf482610cb3565b602082019050919050565b60006020820190508181036000830152610d1881610cdc565b9050919050565b600081519050919050565b60005b83811015610d48578082015181840152602081019050610d2d565b83811115610d57576000848401525b50505050565b6000610d6882610d1f565b610d728185610a54565b9350610d82818560208601610d2a565b610d8b81610892565b840191505092915050565b60006020820190508181036000830152610db08184610d5d565b905092915050565b7f596f752061726520616c72656164792061207265676973746572656420766f7460008201527f6572000000000000000000000000000000000000000000000000000000000000602082015250565b6000610e14602283610a54565b9150610e1f82610db8565b604082019050919050565b60006020820190508181036000830152610e4381610e07565b905091905056fea264697066735822122055a2a885a0e03b5479f90b77febef88ebc8c85039f14f033d3bf01dc5b79e9ee64736f6c63430008090033",
  "linkReferences": {},
  "deployedLinkReferences": {}
}